:020000005F2D72
:0E000600213083120313FD00FD0B07280800B4
:100014000F3083120313FC004730FD00FD0B102842
:0A002400FC0B10280000000008008B
:06002E00000000000800C4
:100034007B15FB1F24280130F300F201F101F001CC
:08004400FA0DF20CFF30080078
:10004C0083160313A21B2D28831286132F288312C9
:10005C0086178316221B3528831206133728831222
:10006C0006178316A21A3D28831286123F28831284
:10007C0086168316221A45288312061247288312E5
:10008C0006165F184B2806154C28061186151720E6
:10009C0086118316A21955288312861357288312AA
:1000AC008617831622195D28831206135F28831284
:1000BC0006178316A21865288312861267288312E6
:1000CC008616831622186D28831206126F28831247
:1000DC0006165F1873280615742806118615172046
:0E00EC0086115F1C7B280A207C280320080058
:0E00FA00F201F101F001F801F30100300800FD
:08010800FA1FF2130030080099
:10011000FB14FB1F9228FF30F300F200F100F00007
:08012000FA0DF20CFF3008009B
:0E0128008312031352088A0051088200080057
:1001360083120313FD01F8017008031900347406D5
:10014600FA00FA1BFD09FB01F41FAB28F409F40AB7
:10015600F01FAF28F009F00A70087404FA00FA1BC1
:10016600D3287408F802F00D700DF80D7408F8071E
:10017600F00D0630FC00700DF80D74087018F802CA
:10018600701CF807F00DFC0BBE28701CF8077B18D6
:10019600E128FD1F0034F009F00AF809F80A0034D6
:1001A600F41FDE28F01BDB287008F800F001CC28CD
:1001B600F001F00A0034F009FB0AB428F80A7408C2
:1001C6007802031DCC28F801F00AF01FCC28FF3472
:0201D60008001F
:1001D800A0017208031D01297108F2007008F100DE
:1001E800F001A0157208031D01297108F200F10140
:1001F800A0112016720803190F292008F302031D05
:10020800031C13290310F21B1729F00DF10DF20D31
:10021800F30B072913290130FC007D201A2902302D
:0E022800FC001A201A290430FC008420080073
:1002360083120313FB01FA01F9018030F800F10C77
:10024600F00C031C2F297408F90775080318750F9D
:10025600FA070318FB0A0310F01F37297408FA0778
:1002660075080318750FFB07FB0CFA0CF90CF80C54
:10027600031C22297B08F3007A08F2007908F100B2
:060286007808F0000800FA
:10028C0083120313FA017308031D7A147708031DF4
:10029C00FA147A0803199229033A03195D297A187A
:1002AC005A29F61F90298E29F21F8E29902972083F
:1002BC008039FA00F21376088039F6137A0603199E
:1002CC006B297A0803198E29902977087302031970
:1002DC007229031C86298A29760872020319792946
:1002EC00031C86298A297508710203198029031CAD
:1002FC0086298A29740870020319922903188A29FD
:10030C00FA08031990298E29FA0803198E299029C5
:10031C000314080003100800031403150800080058
:10032C000E3083120313FD00FD0B9A290000080008
:10033C00831603132008F2007208F100F20A210858
:10034C00F000A10A700884000008F0007108840015
:10035C00700880007108840000080319B629A229CE
:06036C002008F00008006B
:1003720083120313FB017308031D77080319102A64
:1003820072087606FA007708F3077E30031CCD293F
:10039200F3020318132AD029F302031C162A720847
:1003A200F8007108FC007008FD00F817F61703103A
:1003B200F201F101F0011830A0007D1CEA29740855
:1003C200F00775080318750FF10776080318760F02
:1003D200F207F20CF10CF00CF80CFC0CFD0C031003
:1003E200A00BDE29F21BFA29F80DF00DF10DF20D2A
:1003F200F3037B1B701C0C2AF81F0C2AF00A03194A
:10040200F10A0319F20A031D0C2AF20CF10CF00C8A
:10041200F30A0319132AFA1FF2130030182A0130C3
:100422007D20182A02308820182A04301A20000061
:020432000800C0
:10043400831203135F1083162008A20026205F1482
:020444000800AE
:10044600352A803083120313E300482AC030E300C4
:10045600482A9430E300482AD430E300482A803002
:10046600E300482A831203136308013A0319242A76
:100476006308023A0319292A6308033A03192C2A46
:100486006308043A03192F2A322A6403F00063082A
:10049600F0077008E30070088316A20026205F109C
:1004A600E60166086507840000080319632A6608E2
:1004B6006507840000088316A0001A22E60A542A5B
:0404C6005F140800B7
:1004CA0083120313EE01EF016308EA006408EB00EC
:1004DA006508EC006608ED006D08FF3A031D7F2AE7
:1004EA006C08FF3A031D7F2A6B08FF3A031D7F2A17
:1004FA006A08FF3A031D8A2A67088316A000233078
:10050A00A1009E210330F000682C01308312E8001C
:10051A00EC1F9A2A80306C06F0007008EC00E80A9A
:10052A00670884002D308000E70A0030F0006D066D
:10053A00031DA92A70086C06031DA92A70086B06F8
:10054A00031DA92A6A08003A031DB32A67088316FD
:10055A00A0002830A1009E21F001682C83126D08AA
:10056A00FF3A031DC22A6C08003A031DC22A6B080F
:10057A00003A031DC22A6A08003A031DCE2A6708F8
:10058A008316A0002A30A1009E2183126808F00079
:10059A00682C0030F4000030F5000030F6007F309F
:1005AA00F7006A08F0006B08F1006C08F2006D08A9
:1005BA00F3004621013003180030F00070080319D7
:1005CA00012B6A08F0006B08F1006C08F2006D0854
:1005DA00F3000030F4000030F5002030F6008230DD
:1005EA00F700B9217008EA007108EB007208EC0004
:1005FA007308ED00EF03CE2A0030F4000030F50056
:10060A002030F6008230F7006A08F0006B08F1002B
:10061A006C08F2006D08F30046210130031C00301B
:10062A00F00070080319342B6A08F0006B08F10017
:10063A006C08F2006D08F300CD30F400CC30F50000
:10064A004C30F6007B30F700B9217008EA007108D7
:10065A00EB007208EC007308ED00EF0A012BFF3083
:10066A006A05F800FF306B05F9007F306C05FA0067
:10067A0000306D05FB007808F4007908F5007A0867
:10068A00F6007B08F700F40DF50DF60DF70D741062
:10069A0000306A05F00000306B05F10000306C058F
:1006AA00F200FF306D05F3007008EA007108EB00F4
:1006BA007208EC007308ED0074086A04F00075080B
:1006CA006B04F10076086C04F20077086D04F300FD
:1006DA007008EA007108EB007208EC007308ED007C
:1006EA007F306D02F0007008E9000130ED007008FB
:1006FA00F4006A08F0006B08F1006C08F2006D085B
:10070A00F30074080319902BF00DF10DF20DF30D9F
:10071A007010FF3E872B7008EA007108EB00720820
:10072A00EC007308ED006D08303EF00067088400A5
:10073A0070088000E70A80306F06F0008030013AC6
:10074A007002031CB12B8030063AF00080306F062D
:10075A007002031CB12BB82B670884002E3080006E
:10076A00E70A0130EE000630E9006908003A031989
:10077A00162CED016A08F0006B08F1006C08F20013
:10078A006D08F300F00DF10DF20DF30D7010F00D80
:10079A00F10DF20DF30D70106A08F0076B080318DB
:1007AA006B0FF1076C0803186C0FF2076D0803183A
:1007BA006D0FF3077008EA007108EB007208EC008D
:1007CA007308ED006A08F0006B08F1006C08F2008B
:1007DA006D08F300F00DF10DF20DF30D70107008B5
:1007EA00EA007108EB007208EC007308ED006D086E
:1007FA00303EF0006708840070088000E70A6E083F
:10080A00003A031D142CEF036F08003A031D142C41
:10081A00670884002E308000E70A0130EE00E90301
:10082A00BA2BFF30670784000008303A031D1F2CDB
:10083A00E703162CFF306707840000082E3A031DD1
:10084A00272CE7036F08003A0319642C6708840011
:10085A0065308000E70A80306F06F0008030003A89
:10086A0070020318402C670884002D308000E70AC4
:10087A006F08003CEF006F08E9008030093AF00089
:10088A0080306F0670020318562C0A30F40069088B
:10089A00F0009B203030F007670884007008800061
:1008AA00E70A0A30F4006908F0009B207808F00093
:1008BA003030F0076708840070088000E70A67088C
:0808CA0084008001F001080028
:1008D200831203137008F8007108F000F101F201AD
:1008E200F301FB01FC019630F300FA017008F100FC
:0C08F2007808F000F801F201EC2008008A
:1008FE00831203139F01C0309F042709F000700874
:10090E0083169F051F179F1783126308F000F00DC3
:10091E007010F00D7010F00D701070089F041F1401
:10092E0096211F151F1D9D2C0000992C1F101E08AF
:10093E00F100F00183161E08F0040030F1040800E7
:10094E00831603131208013EF000F1010318F10A99
:10095E0083126308F400F5011B210630F2007008C3
:10096E00F4007108F50072080319C22CF50CF40C92
:10097E00F513FF3EBB2C0430F1007408F000710833
:10098E000319CD2CF00D7010FF3EC72C30307005C2
:10099E00F3007408F0007508F100F10CF00CF1137F
:1009AE00F10CF00CF113700895000F3097057308D9
:0409BE009704080092
:1009C200FF3083120313E000FF30E100FF30E2004A
:1009D200FF309F01C0309F042709F0007008831682
:0C09E2009F051F179F1783121F140800A9
:1009EE0094208A110A128000840AD10A0319D20AAD
:0809FE00F003031DF72C0800B3
:100A06008316031386110611061286120613861321
:100A160083128611061186130613861206120A2001
:100A26000A200A20861606168615172086110A2021
:100A36008615172086110A208615172086110A208A
:100A460006128615172086110A208615172086118C
:100A5600861286178615172086110A208613061613
:100A660086151720861106128615172086110A206C
:100A760086151720861106168615172086110A2058
:100A8600061286151720861186170617861606166D
:0C0A96008615172086110A205F14080046
:100AA200831603130711831212150C3097040800E2
:0C0AB2008312031395011712971208001D
:100ABE0038278030831603139F0005140711032572
:100ACE00121492106330831692005925E124512599
:100ADE00E301A724E3017F2470088312BB00710891
:100AEE00BC007008A1007108A20069240C30F4004B
:100AFE003230F5004830F6007B30F700B92170082F
:100B0E00BD007108BE007208BF007308C00000303F
:100B1E00F4000030F5006030F6008330F700462117
:100B2E00013003180030F00070080319A22DCD011A
:100B3E00CE01CF01D0010030F4000030F5000C30B2
:100B4E00F6008430F7003D08F0003E08F1003F0843
:100B5E00F2004008F3004621013003180030F00087
:100B6E0070080319DA2D3D08F4003E08F5003F0821
:100B7E00F6004008F7000030F0000030F100603061
:100B8E00F2008330F3004621013003180030F000EC
:100B9E0070080319DA2D0030CD000030CE00483039
:100BAE00CF008430D0000030F4000030F50020304B
:100BBE00F6008430F7003D08F0003E08F1003F08D3
:100BCE00F2004008F3004621013003180030F00017
:100BDE0070080319122E3D08F4003E08F5003F0878
:100BEE00F6004008F7000030F0000030F1000C3045
:100BFE00F2008430F3004621013003180030F0007B
:100C0E0070080319122E0030CD000030CE001630C1
:100C1E00CF008530D0003D08F4003E08F5003F08B7
:100C2E00F6004008F7000030F0000030F1002030F0
:100C3E00F2008430F3004621013003180030F0003A
:100C4E0070080319322E0030CD000030CE0048302F
:100C5E00CF008530D0003D08E3003E08E4003F0899
:100C6E00E5004008E6004130E700652283120313D9
:100C7E004D08E3004E08E4004F08E5005008E6007A
:100C8E005330E7006522013083120313E300013075
:100C9E00E4003530E50023220130E3000630E400A5
:100CAE004130E500232243308316A0001A22023081
:100CBE00E3000130E4002E30E50023220230E30091
:100CCE000730E4005330E500232225308316A000C0
:100CDE001A220030F4000030F5006030F600833048
:100CEE00F7003D08F0003E08F1003F08F200400812
:100CFE00F3004621013003180030F000700803198C
:100D0E008A2EE301A7240030F4000030F5000C30E9
:100D1E00F6008430F7003D08F0003E08F1003F0871
:100D2E00F2004008F3004621013003180030F000B5
:100D3E0070080319BD2E3D08F4003E08F5003F086B
:100D4E00F6004008F7000030F0000030F10060308F
:100D5E00F2008330F3004621013003180030F0001A
:100D6E0070080319BD2E7F30E300A7240030F40075
:100D7E000030F5002030F6008430F7003D08F0001A
:100D8E003E08F1003F08F2004008F3004621013012
:100D9E0003180030F00070080319F02E3D08F4001F
:100DAE003E08F5003F08F6004008F7000030F0005E
:100DBE000030F1000C30F2008430F3004621013097
:100DCE0003180030F00070080319F02EAF30E30066
:100DDE00A7243D08F4003E08F5003F08F600400841
:100DEE00F7000030F0000030F1002030F2008430C7
:100DFE00F3004621013003180030F000700803198B
:100E0E000B2FFF30E300A7240730FB009930FC00C6
:100E1E004930FD00FD0B112FFC0B112FFB0B112F79
:040E2E00712D182FDB
:100E7000213084001A3083120313F0001E30D10099
:080E80000730D200F72408003E
:040E3C00003400344A
:080E40004E3461344E340034DD
:020E48000F3465
:040E4A00303400340C
:080E4E0049344E3446340034EF
:0E0E5600533470346534653464343A340034F7
:0C0E6400543465346D3470343A3400347A
:02400E004A2F37
:00000001FF
